:100000000C9452010C947A010C947A010C947A01AC
:100010000C947A010C947A010C947A010C947A0174
:100020000C947A010C947A010C947A010C947A0164
:100030000C947A010C947A010C947A010C947A0154
:100040000C94C3060C947A010C940B070C9438079B
:100050000C947A010C947A010C947A010C947A0134
:100060000C947A010C947A01000000002300260011
:10007000290000000008000201000003040700003E
:1000800000000000000000000000250028002B00F8
:1000900000000000240027002A00040404040404D3
:1000A0000404020202020202030303030303010227
:1000B00004081020408001020408102001020408F6
:1000C0001020000000000000005F00000007000793
:1000D00000147F147F14242A7F2A122313086462D9
:1000E00036495522500005030000001C2241000043
:1000F00041221C0014083E081408083E080800505D
:10010000300000080808080800606000002010089F
:1001100004023E5149453E00427F40004261514940
:10012000462141454B311814127F1027454545396A
:100130003C4A4949300171090503364949493606A7
:100140004949291E003636000000563600000814C2
:100150002241001414141414004122140802015105
:100160000906324979413E7E1111117E7F49494984
:10017000363E414141227F4141221C7F494949414C
:100180007F090909013E4149497A7F0808087F0033
:10019000417F41002040413F017F081422417F40C0
:1001A0004040407F020C027F7F0408107F3E4141A7
:1001B000413E7F090909063E4151215E7F09192907
:1001C00046464949493101017F01013F4040403FD6
:1001D0001F2040201F3F4038403F6314081463072E
:1001E000087008076151494543007F4141000204FE
:1001F0000810200041417F000402010204404040F9
:100200004040000102040020545454787F48444484
:10021000383844444420384444487F3854545418AF
:10022000087E0901020C5252523E7F0804047800F5
:10023000447D40002040443D007F102844000041A0
:100240007F40007C041804787C0804047838444417
:1002500044387C14141408081414187C7C08040412
:10026000084854545420043F4440203C4040207CE3
:100270001C2040201C3C4030403C44281028440CAA
:100280005050503C4464544C440008364100000037
:100290007F00000041360800100808100800000028
:1002A00000003D0B11241FBECFEFD8E0DEBFCDBF55
:1002B00011E0A0E0B1E0EEE2FCE102C005900D9299
:1002C000A036B107D9F722E0A0E6B1E001C01D9247
:1002D000A538B207E1F711E0C2E5D1E004C02197EB
:1002E000FE010E940F0EC135D107C9F70E945E07BB
:1002F0000C947D0B0C94000090E080E0089508952C
:100300008E3008F08E508770806480937C008091DE
:100310007A00806480937A0080917A0086FDFCCF19
:1003200080917800909179000895CF93DF9300D069
:1003300000D0CDB7DEB78FB7F8942091810230910D
:100340008202409183025091840229833A834B8335
:100350005C838FBF69817A818B819C810F900F9024
:100360000F900F90DF91CF910895CF93DF9300D03E
:1003700000D0CDB7DEB73FB7F89480917C02909162
:100380007D02A0917E02B0917F0226B5A89B05C098
:100390002F3F19F00196A11DB11D3FBFBA2FA92F04
:1003A000982F8827820F911DA11DB11D9C01AD01C1
:1003B00062E0220F331F441F551F6A95D1F7CA010F
:1003C000B9010F900F900F900F90DF91CF9108958A
:1003D000789484B5826084BD84B5816084BD85B520
:1003E000826085BD85B5816085BDEEE6F0E08081E7
:1003F00081608083E1E8F0E0108280818260808308
:10040000808181608083E0E8F0E08081816080838A
:10041000E1EBF0E0808184608083E0EBF0E08081BC
:1004200081608083EAE7F0E080818460808380815E
:100430008260808380818160808380818068808306
:100440001092C1000895CF93DF9390E0FC01E25534
:10045000FF4F249186569F4FFC0184918823D1F051
:1004600090E0880F991FFC01E057FF4FA591B491D0
:10047000FC01EA57FF4FC591D49161110EC09FB79F
:10048000F8948C91E22FE0958E238C932881E223BF
:10049000E8839FBFDF91CF9108958FB7F894EC91D7
:1004A000E22BEC938FBFF6CF843099F038F4823092
:1004B000C1F0833041F0813081F008958730A1F0A0
:1004C0008830C1F00895809180008F7780938000FC
:1004D0000895809180008F7DF9CF84B58F7784BD9A
:1004E000089584B58F7DFBCF8091B0008F77809386
:1004F000B00008958091B0008F7DF9CF1F93CF9306
:10050000DF93162F282F30E0F901EE58FF4F84912A
:10051000F901E255FF4FD491F901E656FF4FC4911E
:10052000CC23A1F081110E945402EC2FF0E0EE0FD9
:10053000FF1FEA57FF4FA591B4918FB7F894EC9144
:10054000111108C0D095DE23DC938FBFDF91CF91CE
:100550001F910895DE2BF8CFCF93DF93282F30E043
:10056000F901EE58FF4F8491F901E255FF4FD49104
:10057000F901E656FF4FC491CC2379F081110E9416
:100580005402EC2FF0E0EE0FFF1FE859FF4FA5914A
:10059000B491EC91ED2381E009F480E090E0DF91EB
:1005A000CF910895FC01848DDF01A80FB11DA35ADE
:1005B000BF4F2C91848D90E001968F739927848F83
:1005C000A689B7892C93A089B1898C9183708064A6
:1005D0008C93938D848D981306C00288F389E02D47
:1005E00080818F7D80830895FC01818D228D90E034
:1005F000805C9F4F821B91098F73992708958FED1F
:1006000091E00E94F4029C0181E0232B09F480E038
:10061000089580E090E0892B29F00E94FF0281116B
:100620000C9400000895FC01918D828D981731F093
:10063000828DE80FF11D858D90E008958FEF9FEF7B
:100640000895FC01918D828D981761F0828DDF01F4
:10065000A80FB11D5D968C91928D9F5F9F73928FB5
:1006600090E008958FEF9FEF0895FC01538D448D26
:10067000252F30E0842F90E0821B930B541710F04D
:10068000CF96089501970895CF93DF93EC01888D5D
:100690008823B9F0AA89BB89E889F9898C9185FDFD
:1006A00003C0808186FD0DC00FB607FCF7CF8C918B
:1006B00085FFF2CF808185FFEDCFCE010E94D2026F
:1006C000E9CFDF91CF910895EF92FF920F931F939F
:1006D000CF93DF93EC01F62E81E0888F9B8D8C8D7C
:1006E00098131AC0E889F989808185FF15C09FB7E2
:1006F000F894EE89FF896083E889F98980818370A5
:10070000806480839FBF81E090E0DF91CF911F9153
:100710000F91FF90EF9008950B8D10E00F5F1F4F2A
:100720000F731127E02E8C8D8E110CC00FB607FCB5
:10073000FACFE889F989808185FFF5CFCE010E9443
:10074000D202F1CF8B8DFE01E80FF11DE35AFF4F6E
:10075000F0829FB7F8940B8FEA89FB8980818062D1
:10076000D0CFCF92DF92EF92FF920F931F93CF9350
:10077000DF937C016A0110E000E00C151D0581F09B
:10078000EB01D701ED91FC910190F081E02D699191
:10079000C7010995892B21F00F5F1F4FBE01EDCFD7
:1007A000C801DF91CF911F910F91FF90EF90DF90E3
:1007B000CF9008958F929F92AF92BF92CF92DF9287
:1007C000EF92FF92CF93DF9300D000D0CDB7DEB78A
:1007D0000E94B5016B017C0184E6882E912CA12C2E
:1007E000B12C0E94B501DC01CB018C199D09AE0929
:1007F000BF09883E9340A105B10598F321E0821A14
:100800009108A108B10888EEC80E83E0D81EE11C4B
:10081000F11C81149104A104B10419F70F900F90F9
:100820000F900F90DF91CF91FF90EF90DF90CF90DE
:10083000BF90AF909F908F900895DC01ED91FC9157
:100840000190F081E02D09940F931F93CF93DF93D4
:10085000082FD62FC42F18E06C2F661F6627661F3F
:10086000802F0E947E02CC0F61E08D2F0E947E02BD
:1008700060E08D2F0E947E02115071F7DF91CF91C1
:100880001F910F9108951F93CF93DF93EC01142FC5
:100890008E810E947E0260E088850E947E02412F48
:1008A0006C818D810E94240461E08885DF91CF9165
:1008B0001F910C947E02CF92DF92EF92FF920F93E2
:1008C0001F93CF93DF9300D000D00F92CDB7DEB748
:1008D0007C0190E080E067FD4BC0862F90E06032A5
:1008E00008F454C0809725E0289FB001299F700D1F
:1008F00011246E537F4F45E050E0CE0101960E94D7
:10090000800B8E010F5F1F4F680185E0C80ED11C60
:10091000F80141918F01F70186858111409561E0D1
:10092000C7010E9443040C151D0591F7F701468588
:10093000419561E0C7010E944304F701848590E07E
:100940000696628570E00E94C50D8487892B71F43C
:10095000858590E00196638529E3629F612D1124CE
:1009600066956F5F70E00E94C50D858781E090E01D
:100970000F900F900F900F900F90DF91CF911F91DC
:100980000F91FF90EF90DF90CF900895880F991FFF
:10099000F701E80FF91F078510890115110509F006
:1009A000B3CF45E050E062EC70E0A7CFCF93DF9388
:1009B000C0E6D1E01C8690E06B8529E3629F612D43
:1009C000112466956F5F70E00E94C50D8D8740E829
:1009D00060E0CE010E9443044D85406460E0CE019A
:1009E000DF91CF910C944304CF93DF9380E00E947A
:1009F000D604D0E0C0E080916B01869586958695FF
:100A000090916A01899FC0011124C817D90740F449
:100A100040E061E080E691E00E9443042196EBCF44
:100A200080E0DF91CF910C94D604CF93DF93EC015B
:100A3000DB01AB2B81F0FB0101900020E9F731973E
:100A4000AF01461B570BE881F9810280F381E02D4D
:100A5000DF91CF910994DF91CF910895BC0180E699
:100A600091E00C9415056F927F928F929F92AF92B6
:100A7000BF92CF92DF92EF92FF920F931F93CF938B
:100A8000DF93CDB7DEB7A1970FB6F894DEBF0FBEE8
:100A9000CDBF3C01142F052F962E872E19A2223090
:100AA00008F42AE05E0181E2A80EB11CC22ED12C0E
:100AB000F12CE12C612F702F892D982DA701960123
:100AC0000E94D90D812F902FA92DB82D122F032F01
:100AD000942E852E6A3014F5605DF50162935F01F6
:100AE0008C159D05AE05BF0528F7BF01C3010E9407
:100AF0001505A1960FB6F894DEBF0FBECDBFDF91EE
:100B0000CF911F910F91FF90EF90DF90CF90BF900A
:100B1000AF909F908F907F906F900895695CDDCF2C
:100B2000AF92BF92CF92DF92EF92FF920F931F93FB
:100B3000CF93DF93CDB7DEB72A970FB6F894DEBF19
:100B40000FBECDBF8A879987CA01DB0189839A834B
:100B5000AB83BC839A01AB01CB01B9010E94C00DEC
:100B60006EE271E0811121C089819A81AB81BC81E3
:100B7000BF778D839E83AF83B8872FEF3FEF4FE71B
:100B80005FE7BC01CD010E94C00D811122C02FEF93
:100B90003FEF4FE75FE76D817E818F8198850E94EF
:100BA000F60B1816B4F462E371E08A8599852A96EB
:100BB0000FB6F894DEBF0FBECDBFDF91CF911F916E
:100BC0000F91FF90EF90DF90CF90BF90AF900C947B
:100BD00015052FEF3FEF4FE75FE469817A818B8145
:100BE0009C810E944E0D18161CF466E371E0DDCF67
:100BF0002FEF3FEF4FE75FEC69817A818B819C811A
:100C00000E94F60B87FDF1CF20E030E0A901698159
:100C10007A818B819C810E94F60B87FF0EC06DE26A
:100C20008A8599850E941D0489819A81AB81BC8146
:100C3000B05889839A83AB83BC832AE037ED43EABB
:100C40005BE369817A818B819C810E948A0B5B01C5
:100C50006C016983BA828B83DC8269817A818B81A2
:100C60009C810E946D0C7B018C010E949C0C9B015D
:100C7000AC0169817A818B819C810E94890B5B0127
:100C80006C012AE0A701B8018A8599850E94330585
:100C90006EE28A8599850E941D0420E030E040E2E2
:100CA00051E4A982BA82CB82DC8269817A818B810C
:100CB0009C810E94530D7B018C016983FA828B8396
:100CC0001C8369817A818B819C810E946D0C698370
:100CD0007A838B839C83A981BA81CD01B0E0A0E0A7
:100CE00089839A83AB83BC832AE0AC01BD018A85EA
:100CF00099850E94330569817A818B819C810E944C
:100D00009C0C9B01AC01E982FA820B831C836981F4
:100D10007A818B819C810E94890B20E030E040E247
:100D200051E469837A838B839C8369817A818B8187
:100D30009C810E94530D69837A838B839C83698194
:100D40007A818B819C810E946D0C69837A838B836D
:100D50009C8389819A81AC0170E060E02AE08A85F9
:100D600099852A960FB6F894DEBF0FBECDBFDF91EE
:100D7000CF911F910F91FF90EF90DF90CF90BF9098
:100D8000AF900C9433051F921FB61F9211242F931E
:100D90003F938F939F93AF93BF93809181029091E4
:100DA0008202A0918302B09184023091800223E0FC
:100DB000230F2D3750F50196A11DB11D2093800200
:100DC0008093810290938202A0938302B093840265
:100DD00080917C0290917D02A0917E02B0917F0271
:100DE0000196A11DB11D80937C0290937D02A0937A
:100DF0007E02B0937F02BF91AF919F918F913F91FF
:100E00002F911F901FBE1F90189526E8230F029662
:100E1000A11DB11DD3CF2F932FB72F938F939F93E6
:100E2000EF93FF93E091EF01F091F0018081E09169
:100E3000F501F091F60182FD19C090818091F801D1
:100E40008F5F8F732091F901821741F0E091F801D3
:100E5000F0E0E152FE4F958F8093F801FF91EF9102
:100E60009F918F912F912FBF2F9118958081F6CF51
:100E70001F920F920FB60F9211242F933F934F930F
:100E80005F936F937F938F939F93AF93BF93EF93F2
:100E9000FF938FED91E00E94D202FF91EF91BF91FD
:100EA000AF919F918F917F916F915F914F913F9102
:100EB0002F910F900FBE0F901F90189500D000D06B
:100EC00000D00F92CDB7DEB70E94E801E091EF01AC
:100ED000F091F00182E08083E091EB01F091EC0170
:100EE0001082E091ED01F091EE018FEC8083109281
:100EF000F701E091F301F091F40186E08083E09145
:100F0000F101F091F201808180618083E091F10133
:100F1000F091F201808188608083E091F101F0918D
:100F2000F201808180688083E091F101F091F2010B
:100F300080818F7D808384E580936A0180E3809344
:100F40006B011092690110926C0110926D01EFE635
:100F5000F1E080E4DF011D928A95E9F761E080917C
:100F600064010E94230261E0809165010E942302D6
:100F700061E0809166010E94230261E08091670137
:100F80000E94230261E0809168010E94230261E0D7
:100F9000809167010E947E0261E0809168010E9459
:100FA0007E0260E0809167010E947E020E94DA0367
:100FB00061E0809167010E947E0241E260E080E68C
:100FC00091E00E94430443E160E080E691E00E94EA
:100FD00043048091690142EC813039F440EE60E0D5
:100FE00080E691E00E94430445E060E080E691E005
:100FF0000E94430440E260E080E691E00E944304E6
:1010000049E060E080E691E00E9443040E94F4041D
:1010100048E060E080E691E00E9443044CE060E03C
:1010200080E691E00E9443040E94DA0340E860E019
:1010300080E691E00E94430440E460E080E691E0B5
:101040000E94430460E08EE00E94230260E08FE093
:101050000E94230260E080E10E94230260E081E1BF
:101060000E94230260E082E10E94230260E083E1AB
:101070000E94230261E08BE00E94230261E08AE08B
:101080000E94230261E089E00E94230261E088E07F
:101090000E942302E5E07E2E0E9495014B015C0137
:1010A0001092D8011092D701E0E0F4E0F093D00163
:1010B000E093CF011092DA011092D901F093D2019E
:1010C000E093D1011092DC011092DB01F093D40186
:1010D000E093D3011092DE011092DD01F093D6016E
:1010E000E093D5010E94950169837A838B839C8369
:1010F000DC01CB0188199909AA09BB09893E9340F3
:10110000A105B10580F506E211E067EDE62E61E08C
:10111000F62E7FECC72E71E0D72ED8018C910E5F92
:101120001F4F0E9480019C01F701819191917F01E5
:101130003297522F432F2817390714F4582F492F6D
:1011400050834183D6018D919D916D01FD013297B0
:10115000821793070CF49C0131832083B1E00E3297
:101160001B07D9F6BFCF5FECC52E51E0D52EE7EDBA
:10117000F1E0FE83ED830FEB11E018014F017601E2
:10118000D7012D913D917D01F401A190B1904F01C6
:10119000729EC001739E900D11249C01990F440B07
:1011A000550B29833A834B835C83CA01B9010E94A2
:1011B0009E0C20E030E040E85AE369837A838B8319
:1011C0009C8369817A818B819C810E94530D6F83FE
:1011D000472E582E692E7A9CC0017B9C900D1124BD
:1011E0009C01990F440B550B29833A834B835C83F5
:1011F000CA01B9010E949E0C20E030E040E85AE3A9
:1012000069837A838B839C8369817A818B819C81BA
:101210000E94530D9B01AC018F8189834A825B82BE
:101220006C8269817A818B819C810E948A0B25E581
:1012300035E545ED5EE369837A838B839C83698121
:101240007A818B819C810E94FB0B20E030E040E49E
:1012500051E469837A838B839C8369817A818B8152
:101260009C810E94890B69837A838B839C83D10143
:101270006D937D938D939D931D01B7EDEB16B1E0BA
:10128000FB0609F07DCF4FEAE42E41E0F42E570132
:10129000F601819091906F01AD81BE812D913D91BC
:1012A000BE83AD83729EC001739E900D11249C017C
:1012B000990F440B550B29833A834B835C83CA01F6
:1012C000B9010E949E0C20E030E040E85AE36983B7
:1012D0007A838B839C8369817A818B819C810E9434
:1012E000530D362E472E582E692E789CC001799CBE
:1012F000900D11249C01990F440B550B29833A83BF
:101300004B835C83CA01B9010E949E0C20E030E04F
:1013100040E85AE369837A838B839C8369817A816D
:101320008B819C810E94530D9B01AC0139824A82C2
:101330005B826C8269817A818B819C810E94890B9E
:1013400025E535E545ED5EE369837A838B839C83F0
:1013500069817A818B819C810E94FB0B24EF3DEF98
:1013600044E35FE369837A838B839C8369817A8119
:101370008B819C810E94530D69837A838B839C832C
:10138000D5016D937D938D939D935D01B7EDCB1644
:10139000B1E0DB0609F07CCF0E94F40482E10E94F8
:1013A000AC02019709F0CEC080E00E94D6048AE327
:1013B00091E00E942E0582E00E94D60481E491E033
:1013C0000E942E054091BF015091C0016091C10162
:1013D0007091C20180E691E00E94900583E00E9436
:1013E000D60486E491E00E942E054091C3015091FD
:1013F000C4016091C5017091C60180E691E00E9430
:10140000900584E00E94D6048BE491E00E942E05B2
:101410004091C7015091C8016091C9017091CA0102
:1014200080E691E00E94900585E00E94D60480E568
:1014300091E00E942E054091CB015091CC0160912A
:10144000CD017091CE0180E691E00E94900583E18C
:101450000E94AC02019709F4C5C03EE1C32E31E001
:10146000D32ED8012D913D914D915D918D01298310
:101470003A834B835C8320E030E0A90169817A8163
:101480008B819C810E944E0D18164CF029813A8167
:101490004B815C81505829833A834B835C8326E6D9
:1014A00036E64EE351E469817A818B819C810E940A
:1014B0004E0D18164CF1D7018D919D910D90BC9158
:1014C000A02D89839A83AB83BC8320E030E0A901FF
:1014D000BC01CD010E944E0D18164CF029813A81B5
:1014E0004B815C81505829833A834B835C8326E689
:1014F00036E64EE351E469817A818B819C810E94BA
:101500004E0D18160CF0B5C061E0D6018C910E940A
:101510007E02F2E0CF0ED11C24E0E20EF11C4FEC73
:1015200051E04017510709F09CCF80E090E0892BF3
:1015300009F4B2CD0E94FF02882309F4ADCD0E94C8
:101540000000AACD80E00E94D60485E591E00E94CB
:101550002E0582E00E94D60481E491E00E942E05CF
:101560004091AF015091B0016091B1017091B20111
:1015700080E691E00E94900583E00E94D60486E414
:1015800091E00E942E054091B3015091B401609109
:10159000B5017091B60180E691E00E94900584E06B
:1015A0000E94D6048BE491E00E942E054091B70181
:1015B0005091B8016091B9017091BA0180E691E053
:1015C0000E94900585E00E94D60480E591E00E948B
:1015D0002E054091BB015091BC016091BD017091FD
:1015E000BE0131CF8FEAC82E81E0D82E9FEBA92E05
:1015F00091E0B92E212C312C2101239466E58FED49
:1016000091E00E941D042AE0B201A1018FED91E05A
:101610000E9433056CE28FED91E00E941D04F501FC
:1016200041915191619171915F018FED91E00E9423
:1016300090056CE28FED91E00E941D04D6014D9162
:101640005D916D917D916D018FED91E00E9490050E
:101650006AE08FED91E00E941D04BFEF2B1A3B0A58
:101660004B0A5B0AE5E02E1631044104510431F6C1
:10167000F4CE60E0F60180814ACFEFEDF1E0138215
:10168000128288EE93E0A0E0B0E084839583A68385
:10169000B78384E091E09183808385EC90E0958727
:1016A000848784EC90E09787868780EC90E0918B2C
:1016B000808B81EC90E0938B828B82EC90E0958B19
:1016C000848B86EC90E0978B868B118E128E138E16
:1016D000148EE0E6F1E01382128286E191E09183BC
:1016E000808383E0848384E0858385E0868386E04D
:1016F000878387E0808716860895F8940C94150EEA
:10170000FB01DC0102C005900D9241505040D8F71A
:1017100008955058BB27AA270E94A10B0C94140DC2
:101720000E94060D38F00E940D0D20F039F49F3F05
:1017300019F426F40C94030D0EF4E095E7FB0C94D9
:10174000FD0CE92F0E94250D58F3BA1762077307A5
:101750008407950720F079F4A6F50C94470D0EF454
:10176000E0950B2EBA2FA02D0B01B90190010C01B1
:10177000CA01A0011124FF27591B99F0593F50F4C9
:10178000503E68F11A16F040A22F232F342F442721
:10179000585FF3CF469537952795A795F040539519
:1017A000C9F77EF41F16BA0B620B730B840BBAF0E9
:1017B0009150A1F0FF0FBB1F661F771F881FC2F754
:1017C0000EC0BA0F621F731F841F48F48795779568
:1017D0006795B795F7959E3F08F0B0CF9395880F22
:1017E00008F09927EE0F9795879508950E94D90CD8
:1017F00008F481E008950E940F0C0C94140D0E94CF
:101800000D0D58F00E94060D40F029F45F3F29F0BD
:101810000C94FD0C51110C94480D0C94030D0E9476
:10182000250D68F39923B1F3552391F3951B550BBF
:10183000BB27AA2762177307840738F09F5F5F4FA3
:10184000220F331F441FAA1FA9F335D00E2E3AF0E2
:10185000E0E832D091505040E695001CCAF72BD0FA
:10186000FE2F29D0660F771F881FBB1F261737074B
:101870004807AB07B0E809F0BB0B802DBF01FF277D
:1018800093585F4F3AF09E3F510578F00C94FD0C51
:101890000C94480D5F3FE4F3983ED4F3869577951A
:1018A0006795B795F7959F5FC9F7880F911D969536
:1018B000879597F90895E1E0660F771F881FBB1F92
:1018C000621773078407BA0720F0621B730B840B3F
:1018D000BA0BEE1F88F7E09508950E942D0D88F051
:1018E0009F5798F0B92F9927B751B0F0E1F0660FE4
:1018F000771F881F991F1AF0BA95C9F714C0B13025
:1019000091F00E94470DB1E008950C94470D672FA8
:10191000782F8827B85F39F0B93FCCF38695779553
:101920006795B395D9F73EF490958095709561953C
:101930007F4F8F4F9F4F0895E89409C097FB3EF467
:1019400090958095709561957F4F8F4F9F4F99230C
:10195000A9F0F92F96E9BB279395F695879577958A
:101960006795B795F111F8CFFAF4BB0F11F460FF4A
:101970001BC06F5F7F4F8F4F9F4F16C0882311F0A2
:1019800096E911C0772321F09EE8872F762F05C0B6
:10199000662371F096E8862F70E060E02AF09A9551
:1019A000660F771F881FDAF7880F9695879597F946
:1019B0000895990F0008550FAA0BE0E8FEEF1616E0
:1019C0001706E807F907C0F012161306E407F50733
:1019D00098F0621B730B840B950B39F40A2661F0A7
:1019E000232B242B252B21F408950A2609F4A1404A
:1019F000A6958FEF811D811D089597F99F6780E857
:101A000070E060E008959FEF80EC089500240A9450
:101A10001616170618060906089500240A941216C9
:101A20001306140605060895092E0394000C11F4FC
:101A3000882352F0BB0F40F4BF2B11F460FF04C0A9
:101A40006F5F7F4F8F4F9F4F089557FD9058440F02
:101A5000551F59F05F3F71F04795880F97FB991F0D
:101A600061F09F3F79F087950895121613061406CA
:101A7000551FF2CF4695F1DF08C016161706180657
:101A8000991FF1CF86957105610508940895E89432
:101A9000BB2766277727CB0197F908950E94D90CB9
:101AA00008F48FEF08950E94660D0C94140D0E94A7
:101AB000060D38F00E940D0D20F0952311F00C94C6
:101AC000FD0C0C94030D11240C94480D0E94250D5F
:101AD00070F3959FC1F3950F50E0551F629FF00181
:101AE000729FBB27F00DB11D639FAA27F00DB11D9A
:101AF000AA1F649F6627B00DA11D661F829F222723
:101B0000B00DA11D621F739FB00DA11D621F839FA9
:101B1000A00D611D221F749F3327A00D611D231F7F
:101B2000849F600D211D822F762F6A2F11249F57CD
:101B300050409AF0F1F088234AF0EE0FFF1FBB1FD0
:101B4000661F771F881F91505040A9F79E3F51058F
:101B500080F00C94FD0C0C94480D5F3FE4F3983E2C
:101B6000D4F3869577956795B795F795E7959F5F39
:101B7000C1F7FE2B880F911D9695879597F90895CB
:101B80000E94D90C880B990B089597FB072E16F429
:101B9000009407D077FD09D00E94FB0D07FC05D00B
:101BA0003EF4909581959F4F0895709561957F4F74
:101BB0000895A1E21A2EAA1BBB1BFD010DC0AA1F8E
:101BC000BB1FEE1FFF1FA217B307E407F50720F0A6
:101BD000A21BB30BE40BF50B661F771F881F991F21
:101BE0001A9469F760957095809590959B01AC016A
:101BF000BD01CF010895AA1BBB1B51E107C0AA1F5D
:101C0000BB1FA617B70710F0A61BB70B881F991F9D
:101C10005A95A9F780959095BC01CD010895EE0FD6
:0E1C2000FF1F0590F491E02D0994F894FFCF7A
:101C2E00000000006403B10335034403F4022103F2
:101C3E001303000000005B04B1037C017F010B0065
:101C4E000A00090008000E000F00100011006E615E
:101C5E006E00696E66006F76660044432028562932
:101C6E000056313A200056323A200056333A2000C0
:101C7E0056343A20004143202856726D73290000D5
:00000001FF
